:100000000C942A000C94DE110C9411120C944412DE
:100010000C9447000C9447000C9447000C94470044
:100020000C9447000C9447000C94C20A0C946B0B80
:100030000C9447000C9447000C9447000C94470024
:100040000C9410170C9447000C9447000C94470034
:100050000C94470011241FBECFE5D8E0DEBFCDBF12
:1000600018E0A0E6B0E0EEECF6E702C005900D92D5
:10007000AC31B107D9F718E0ACE1B8E001C01D928E
:10008000A633B107E1F70E94D0230C94653B0C9492
:100090000000EF92FF920F931F937B018C0120E0F1
:1000A00030E040E05FE40E94F50388238CF0C80153
:1000B000B70120E030E040E05FE40E94C1010E940F
:1000C00055049B01AC01205030404040504806C0D0
:1000D000C801B7010E9455049B01AC01B901CA01D6
:1000E0001F910F91FF90EF900895A0E0B0E0EBE733
:1000F000F0E00C94B23ADC012B01FA019C919230B1
:1001000008F439C1EB018881823008F433C194309E
:1001100069F4843009F02FC111969C91119789815F
:10012000981709F428C1A2E0B7E025C1843009F48A
:1001300021C18230A9F4923009F01DC19A01AD01AC
:1001400088E0EA010990AE01E90109929E0181501F
:10015000C1F7E201898111969C918923818308C1AD
:10016000923009F407C112962D903C901397EB0141
:100170008A819B811496AD90BD90CD90DC901797AD
:10018000EC80FD800E811F819101281B390BB90184
:1001900037FF04C066277727621B730B6032710537
:1001A0000CF061C0121613066CF537014801062EDB
:1001B00004C096948794779467940A94D2F721E0C8
:1001C00030E040E050E004C0220F331F441F551FB1
:1001D0006A95D2F721503040404050402E213F21B7
:1001E00040235123211531054105510521F021E01E
:1001F00030E040E050E079018A01E628F72808293C
:1002000019293CC0232BD1F1260E371E350146019A
:10021000062E04C096948794779467940A94D2F734
:1002200021E030E040E050E004C0220F331F441FC3
:10023000551F6A95D2F721503040404050402A2146
:100240003B214C215D21211531054105510521F04E
:1002500021E030E040E050E059016A01A628B728CB
:10026000C828D9280BC0821593052CF01C01AA249C
:10027000BB24650103C0EE24FF24870111969C91E5
:10028000D20111968C91981709F445C0992339F041
:10029000A80197012A193B094C095D0906C0A6016E
:1002A00095012E193F09400B510B57FD08C01182D3
:1002B0003382228224833583468357831DC081E0A5
:1002C00081833382228288279927DC01821B930B4A
:1002D000A40BB50B84839583A683B7830DC0220F2F
:1002E000331F441F551F24833583468357838281E0
:1002F000938101979383828324813581468157813D
:10030000DA01C9010197A109B1098F5F9F4FAF4F72
:10031000BF4328F30BC0918333822282EA0CFB1C7B
:100320000C1D1D1DE482F5820683178383E0808304
:10033000248135814681578157FF1AC0C901AA27F8
:1003400097FDA095BA2F81709070A070B0705695EF
:10035000479537952795822B932BA42BB52B848318
:100360009583A683B7838281938101969383828349
:10037000DF0101C0D201CD01CDB7DEB7E2E10C94BF
:10038000CE3AA0E2B0E0E7ECF1E00C94BE3A69832B
:100390007A838B839C832D833E834F835887E9E048
:1003A000EE2EF12CEC0EFD1ECE010196B7010E943F
:1003B00046068E010F5E1F4FCE010596B8010E94C2
:1003C00046068A8991E089278A8BC701B801AE0168
:1003D000475E5F4F0E9475000E947105A096E6E09F
:1003E0000C94DA3AA0E2B0E0E8EFF1E00C94BE3A07
:1003F00069837A838B839C832D833E834F835887C5
:10040000F9E0EF2EF12CEC0EFD1ECE010196B701A6
:100410000E9446068E010F5E1F4FCE010596B80161
:100420000E944606C701B801AE01475E5F4F0E94B9
:1004300075000E947105A096E6E00C94DA3AA0E2FD
:10044000B0E0E5E2F2E00C94B23A69837A838B8300
:100450009C832D833E834F835887CE010196BE0136
:10046000675F7F4F0E944606CE010596BE016F5E14
:100470007F4F0E9446069985923088F089898230A4
:10048000C8F0943019F4823051F404C0843029F457
:10049000923081F482E097E0C6C0923049F420E0C7
:1004A0009A858A89981321E02A87CE010996BBC0D4
:1004B000823049F420E09A858A89981321E02A8BBA
:1004C000CE014196B0C02D843E844F8458886D88FB
:1004D0007E888F88988CEE24FF248701AA24BB2471
:1004E000650140E050E060E070E0E0E0F0E0C10174
:1004F00081709070892BE9F0E60CF71C081D191D1E
:100500009A01AB012A0D3B1D4C1D5D1D80E090E062
:10051000A0E0B0E0E614F7040805190520F481E036
:1005200090E0A0E0B0E0BA01A901480F591F6A1F8E
:100530007B1FAA0CBB1CCC1CDD1C97FE08C081E0F5
:1005400090E0A0E0B0E0A82AB92ACA2ADB2A3196B6
:10055000E032F10549F0660C771C881C991C569412
:10056000479437942794C3CFFA85EA892B893C892D
:100570008B859C85280F391F2E5F3F4F17C0CA01FE
:1005800081709070892B61F016950795F794E79428
:1005900080E090E0A0E0B0E8E82AF92A0A2B1B2BC3
:1005A00076956795579547952F5F3F4F77FDE7CF36
:1005B0000CC0440F551F661F771F17FD4160EE0CDE
:1005C000FF1C001F111F21503040403090E05907A0
:1005D00090E0690790E4790760F32B8F3C8FDB0193
:1005E000CA018F779070A070B07080349105A1051A
:1005F000B10561F447FD0AC0E114F10401051105DC
:1006000029F0405C5F4F6F4F7F4F40781A8EFE1786
:1006100011F081E08A8F4D8F5E8F6F8F78A383E01A
:10062000898FCE0149960E947105A096E2E10C9453
:10063000CE3AA8E1B0E0EFE1F3E00C94BA3A698376
:100640007A838B839C832D833E834F835887B9E0C5
:10065000EB2EF12CEC0EFD1ECE010196B7010E948F
:1006600046068E010F5E1F4FCE010596B8010E940F
:1006700046062985223008F47EC03989323010F4CC
:10068000B8017CC08A859A8989278A87243011F02D
:10069000223031F4231709F06EC062E077E06EC0BB
:1006A000343039F41D861E861F86188A1C861B86E8
:1006B00004C0323021F484E08987B7015FC02B8504
:1006C0003C858B899C89281B390B3C872B87ED84C3
:1006D000FE840F851889AD88BE88CF88D88CEA142F
:1006E000FB040C051D0540F4EE0CFF1C001F111F40
:1006F000215030403C872B8720E030E040E050E044
:1007000080E090E0A0E0B0E460E070E0EA14FB0478
:100710000C051D0540F0282B392B4A2B5B2BEA18C2
:10072000FB080C091D09B695A79597958795EE0CC2
:10073000FF1C001F111F6F5F7F4F6F31710531F775
:10074000DA01C9018F779070A070B0708034910584
:10075000A105B10561F427FD0AC0E114F10401050A
:10076000110529F0205C3F4F4F4F5F4F20782D87B8
:100770003E874F87588BBE01675F7F4FCB010E943A
:1007800071056896EAE00C94D63AA8E1B0E0EBEC8B
:10079000F3E00C94BE3A69837A838B839C832D8328
:1007A0003E834F83588789E0E82EF12CEC0EFD1E26
:1007B000CE010196B7010E9446068E010F5E1F4FC3
:1007C000CE010596B8010E9446068985823040F028
:1007D0008989823028F0C701B8010E94BE0601C095
:1007E0008FEF6896E6E00C94DA3AA8E1B0E0EBEF20
:1007F000F3E00C94BE3A69837A838B839C832D83C8
:100800003E834F83588789E0E82EF12CEC0EFD1EC5
:10081000CE010196B7010E9446068E010F5E1F4F62
:10082000CE010596B8010E9446068985823040F0C7
:100830008989823028F0C701B8010E94BE0601C034
:100840008FEF6896E6E00C94DA3AA8E1B0E0EBE2CC
:10085000F4E00C94BE3A69837A838B839C832D8366
:100860003E834F83588789E0E82EF12CEC0EFD1E65
:10087000CE010196B7010E9446068E010F5E1F4F02
:10088000CE010596B8010E9446068985823040F067
:100890008989823028F0C701B8010E94BE0601C0D4
:1008A00081E06896E6E00C94DA3AACE0B0E0EBE583
:1008B000F4E00C94C23A69837A838B839C83CE01E3
:1008C0000196BE016B5F7F4F0E9446068D8182308C
:1008D00061F1823050F1843021F48E81882351F10E
:1008E0002EC02F81388537FD20C06E812F31310514
:1008F0001CF06623F9F023C08EE190E0821B930B7D
:1009000029853A854B855C8504C056954795379572
:1009100027958A95D2F76623B1F05095409530958A
:1009200021953F4F4F4F5F4F0EC020E030E040E039
:1009300050E009C02FEF3FEF4FEF5FE704C020E02A
:1009400030E040E050E8B901CA012C96E2E00C9496
:10095000DE3AA8E0B0E0EFEAF4E00C94BA3A7B01AA
:100960008C01611571058105910519F482E0898377
:1009700060C083E089838EE1C82ED12CDC82CB82DB
:10098000ED82FE820F831887C801B7010E942205FD
:10099000FC013197F7FF3BC0222733272E1B3F0B6B
:1009A00057016801022E04C0D694C794B794A79447
:1009B0000A94D2F740E050E060E070E081E090E01F
:1009C000A0E0B0E004C0880F991FAA1FBB1F2A95A2
:1009D000D2F70197A109B1098E219F21A023B1234C
:1009E0000097A105B10521F041E050E060E070E022
:1009F0004A295B296C297D294D835E836F83788723
:100A00008EE190E08E1B9F0B9C838B8312C03097EE
:100A100081F00E2E04C0EE0CFF1C001F111F0A9463
:100A2000D2F7ED82FE820F831887CE1ADF0ADC82AE
:100A3000CB821A82CE0101960E9471052896EAE0C7
:100A40000C94D63AEF92FF920F931F937B018C0187
:100A500080E0E81680E0F80681E0080780E01807EB
:100A600088F48FEFE816F1040105110531F028F044
:100A700088E090E0A0E0B0E017C080E090E0A0E067
:100A8000B0E012C080E0E81680E0F80680E00807D9
:100A900081E0180728F088E190E0A0E0B0E004C011
:100AA00080E190E0A0E0B0E020E230E040E050E003
:100AB000281B390B4A0B5B0B04C016950795F7945E
:100AC000E7948A95D2F7F701E65FF84F8081281BFB
:100AD000310941095109C9011F910F91FF90EF9010
:100AE0000895DF92EF92FF920F931F93FC01E48031
:100AF000F58006811781D1808081823048F480E0C2
:100B000090E0A0E1B0E0E82AF92A0A2B1B2BA5C04F
:100B1000843009F49FC0823021F4EE24FF24870141
:100B200005C0E114F1040105110519F4E0E0F0E05D
:100B300096C0628173819FEF623879070CF05BC0C9
:100B400022E83FEF261B370B2A3131052CF020E03D
:100B500030E040E050E02AC0B801A701022E04C0F6
:100B600076956795579547950A94D2F781E090E07E
:100B7000A0E0B0E004C0880F991FAA1FBB1F2A95F0
:100B8000D2F70197A109B1098E219F21A023B1239A
:100B90000097A105B10521F081E090E0A0E0B0E070
:100BA0009A01AB01282B392B4A2B5B2BDA01C901A7
:100BB0008F779070A070B07080349105A105B10559
:100BC00039F427FF09C0205C3F4F4F4F5F4F04C0EF
:100BD000215C3F4F4F4F5F4FE0E0F0E02030A0E05E
:100BE0003A07A0E04A07A0E45A0710F0E1E0F0E07D
:100BF00079018A0127C06038710564F5FB01E1586D
:100C0000FF4FD801C7018F779070A070B07080340B
:100C10009105A105B10539F4E7FE0DC080E490E02F
:100C2000A0E0B0E004C08FE390E0A0E0B0E0E80E08
:100C3000F91E0A1F1B1F17FF05C016950795F7948D
:100C4000E794319687E016950795F794E7948A958F
:100C5000D1F705C0EE24FF248701EFEFF0E06E2FFF
:100C6000679566276795902F9F77D794DD24D79453
:100C70008E2F8695492F462B582F5D29B701CA0123
:100C80001F910F91FF90EF90DF900895FC01DB0121
:100C9000408151812281622F6F7770E0221F2227CD
:100CA000221F9381892F880F822B282F30E0991FD4
:100CB0009927991F11969C93119721153105A9F534
:100CC000411551056105710511F482E037C082E8D4
:100CD0009FEF13969C938E9312979A01AB0167E056
:100CE000220F331F441F551F6A95D1F783E08C9361
:100CF0000DC0220F331F441F551F12968D919C91DA
:100D00001397019713969C938E931297203080E04F
:100D1000380780E0480780E4580758F314962D936D
:100D20003D934D935C93179708952F3F310579F4C8
:100D3000411551056105710519F484E08C930895FE
:100D400064FF03C081E08C9312C01C9210C02F5727
:100D5000304013963C932E93129783E08C9387E058
:100D6000440F551F661F771F8A95D1F7706414963C
:100D70004D935D936D937C93179708951F93DC01BA
:100D8000FB019C91923008F447C08081823008F4C6
:100D900043C0943051F411961C91843099F58181AF
:100DA000682F70E0611B71093FC0843021F09230E0
:100DB00031F48230B9F18181882389F12DC01196F7
:100DC0001C9111978230F1F081811817D9F4129695
:100DD0002D913C911397828193818217930794F010
:100DE00028173907BCF014968D919D910D90BC91F8
:100DF000A02D2481358146815781281739074A075C
:100E00005B0718F4112341F00AC082179307A40767
:100E1000B50740F4112319F061E070E005C06FEFF1
:100E20007FEF02C060E070E0CB011F910895DF9377
:100E3000CF9300D000D0CDB7DEB781E08C83ABE29A
:100E4000B0E0EBE2F0E0808182608C93AAE2B0E057
:100E5000EAE2F0E0808188618C931B828B8186605E
:100E60008B838B818F7C8B838B81877F8B838B8123
:100E70008F7B8B838B8180688B83E0E4F0E08B81B8
:100E800080838FEC90E09A83898389819A819F7710
:100E90009A838983E9E2F0E089818083E0E4F0E0ED
:100EA00089819A81892F9927808383E060E040E0DF
:100EB0000E94771283E061E041E00E9477128C810A
:100EC0000F900F900F900F90CF91DF910895DF93C7
:100ED000CF9300D0CDB7DEB78A8381E08983EBE280
:100EE000F0E08081829586958770882F90E08170F0
:100EF00090700097A1F3ECE2F0E08A818083898111
:100F00000F900F90CF91DF910895DF93CF9300D092
:100F10000F92CDB7DEB79B838A8381E08983EBE2B2
:100F2000F0E080818823DCF7ECE2F0E08081EA8168
:100F3000FB81808389810F900F900F90CF91DF917B
:100F40000895DF93CF9300D00F92CDB7DEB79B8388
:100F50008A8381E0898317C0EBE2F0E0808182958B
:100F600086958770882F90E0817090700097A1F32C
:100F7000ACE2B0E0EA81FB8180818C938A819B8125
:100F800001969B838A83EA81FB818081882321F7F4
:100F900089810F900F900F90CF91DF910895DF938B
:100FA000CF9300D000D00F92CDB7DEB79D838C8356
:100FB00081E08B831A821982EBE2F0E08081882342
:100FC000DCF7ECE2F0E080818A838A818D3031F0B9
:100FD0008A818A3019F08A81882391F48981282FA7
:100FE00030E08C819D81FC01E20FF31F10828B8128
:100FF0000F900F900F900F900F90CF91DF91089569
:101000008981282F30E08C819D81FC01E20FF31F44
:101010008A81808389818F5F8983CECFDF93CF934D
:101020000F92CDB7DEB71982AFE4B0E0EFE4F0E0A5
:1010300080818E7F8C93AFE4B0E0EFE4F0E08081BC
:1010400082608C93AEE4B0E0EEE4F0E080818860F2
:101050008C93AEE4B0E0EEE4F0E0808180618C93AC
:10106000AFE4B0E0EFE4F0E0808180688C93AFE41F
:10107000B0E0EFE4F0E080818F7B8C9383E065E06B
:1010800041E00E94771283E064E041E00E94771221
:10109000AFE4B0E0EFE4F0E0808180628C93AFE4F5
:1010A000B0E0EFE4F0E080818F7E8C9389810F9037
:1010B000CF91DF9108950F931F93DF93CF9300D0CB
:1010C000CDB7DEB79A83898306E410E089819A81DF
:1010D0000024969587950794969587950794982F61
:1010E000802D9C0140E050E080E094E2A4EFB0E06D
:1010F000BC01CD010E94753ADA01C901F801918362
:10110000808380E00F900F90CF91DF911F910F911E
:101110000895EF92FF920F931F93DF93CF9300D028
:10112000CDB7DEB78A8319828A81853610F084E6CE
:101130008A830F2EFAE4EF2EFF24F02D8A81082FE8
:1011400010E0E6E4F0E08081918124E630E0B9012E
:101150000E944E3ACB019C01029FC001039F900D5B
:10116000129F900D1124F7019183808389810F9044
:101170000F90CF91DF911F910F91FF90EF90089505
:10118000EF92FF920F931F93DF93CF9300D0CDB7D1
:10119000DEB78A8319828A81853610F084E68A83D5
:1011A0000F2EF8E4EF2EFF24F02D8A81082F10E097
:1011B000E6E4F0E08081918124E630E0B9010E940C
:1011C0004E3ACB019C01029FC001039F900D129FDC
:1011D000900D11240197F7019183808389810F90ED
:1011E0000F90CF91DF911F910F91FF90EF90089595
:1011F000DF93CF930F92CDB7DEB71982AEE4B0E0A4
:10120000EEE4F0E0808183608C9389810F90CF9130
:10121000DF910895DF93CF93CDB7DEB7AEE4B0E0B2
:10122000EEE4F0E08081887F8C9380E0CF91DF91C5
:101230000895DF93CF930F92CDB7DEB71982E3E520
:10124000F0E0108289810F90CF91DF910895DF93B4
:10125000CF930F92CDB7DEB71982A3E5B0E0E3E5F7
:10126000F0E08081887F8C93A3E5B0E0E3E5F0E0D7
:10127000808185608C9389810F90CF91DF91089553
:10128000DF93CF93CDB7DEB7A3E5B0E0E3E5F0E0C1
:101290008081887F8C9380E0CF91DF910895EF92D9
:1012A000FF920F931F93DF93CF93CDB7DEB7639772
:1012B0000FB6F894DEBF0FBECDBF9B8B8A8B198A09
:1012C00019821A821B821C828FE692E1A3E8BDE399
:1012D0008D839E83AF83B8878FE692E1A3E8B1E464
:1012E00089879A87AB87BC878A899B89CC01A0E0D4
:1012F000B0E0BC01CD010E94A904DC01CB01BC011E
:10130000CD0129853A854B855C850E94250488237B
:1013100054F58A899B89CC01A0E0B0E0BC01CD01E5
:101320000E94A9049B01AC0169857A858B859C8507
:101330000E94C101DC01CB01BC01CD012D813E81A8
:101340004F8158850E941903DC01CB01BC01CD01FE
:101350000E944900DC01CB019E878D8781E090E0EF
:10136000988B8F8772C069857A858B859C850E9452
:101370005504DC01CB019C018A899B892817390718
:1013800039F41E861D8681E090E0988B8F875DC0C2
:101390008A899B89CC01A0E0B0E0BC01CD010E940C
:1013A000A904DC01CB01BC01CD0129853A854B851F
:1013B0005C850E941903DC01CB01BC01CD010E94B8
:1013C000E93ADC01CB01BC01CD010E944900DC01FE
:1013D000CB01988B8F878A899B89CC01A0E0B0E0F4
:1013E000BC01CD010E94A904DC01CB01BC01CD01EF
:1013F0002D813E814F8158850E941903DC01CB016C
:101400007C018D018F859889CC01A0E0B0E0BC0102
:10141000CD010E94A9049B01AC01C801B7010E9443
:101420001903DC01CB019C01AD0160E070E080E8B4
:1014300093E40E94C101DC01CB01BC01CD010E94FB
:101440004900DC01CB019E878D87E2E5F0E08D85C8
:1014500080830E9427091BC0E8E5F0E08081882F87
:1014600090E0817090700097B9F3A8E5B0E0E8E5EE
:10147000F0E0808181608C9389819A81AB81BC810D
:101480000196A11DB11D89839A83AB83BC838F858F
:1014900098899C0140E050E089819A81AB81BC81B0
:1014A00082179307A407B507B8F2E3E5F0E01082CE
:1014B000898963960FB6F894DEBF0FBECDBFCF917A
:1014C000DF911F910F91FF90EF900895DF93CF93DD
:1014D00000D00F92CDB7DEB79B838A8319828A81B1
:1014E0009B8190931D0880931C0889810F900F9019
:1014F0000F90CF91DF910895DF93CF930F92CDB7E7
:10150000DEB71982A3E5B0E0E3E5F0E08081886012
:101510008C93A3E5B0E0E3E5F0E0808180648C93F8
:10152000A3E5B0E0E3E5F0E0808180628C938981FF
:101530000F90CF91DF910895DF93CF9300D0CDB777
:10154000DEB78A8319828A81853610F084E68A8321
:1015500089810F900F90CF91DF910895DF93CF9302
:10156000CDB7DEB70E94270980E0CF91DF910895C3
:10157000DF93CF93CDB7DEB70E94400980E0CF91D3
:10158000DF9108951F920F920FB60F9211242F939F
:101590003F934F935F936F937F938F939F93AF93FB
:1015A000BF93EF93FF93DF93CF93CDB7DEB78091D7
:1015B000230890912408A0912508B091260801964F
:1015C000A11DB11D8093230890932408A0932508A2
:1015D000B093260880911E0890911F08009709F487
:1015E00067C08091230890912408A0912508B091AC
:1015F000260881309105A105B10539F580912008B3
:10160000909121089C0140E050E080912308909146
:101610002408A0912508B0912608281739074A0701
:101620005B0799F4E0911E08F0911F08099510924C
:101630002308109224081092250810922608ECE541
:10164000F0E080912208808333C08091230890913C
:101650002408A0912508B091260881309105A105A4
:10166000B10529F4ECE5F0E08FEF808321C0809193
:101670002008909121089C0140E050E080912308CF
:1016800090912408A0912508B091260828173907C1
:101690004A075B0769F410922308109224081092FD
:1016A000250810922608ECE5F0E08091220880835E
:1016B000CF91DF91FF91EF91BF91AF919F918F916A
:1016C0007F916F915F914F913F912F910F900FBE3E
:1016D0000F901F9018951F920F920FB60F92112422
:1016E0002F933F934F935F936F937F938F939F932A
:1016F000AF93BF93EF93FF93DF93CF93CDB7DEB755
:101700008091270890912808A0912908B0912A0873
:101710000196A11DB11D8093270890932808A093DE
:101720002908B0932A0880911C0890911D08009701
:1017300031F180912008909121089C0140E050E017
:101740008091270890912808A0912908B0912A0833
:10175000281739074A075B0791F4E2E5F0E080912A
:1017600022088083109227081092280810922908D6
:1017700010922A08E0911C08F0911D080995CF915C
:10178000DF91FF91EF91BF91AF919F918F917F91E9
:101790006F915F914F913F912F910F900FBE0F90DE
:1017A0001F901895DF93CF93CDB7DEB72F970FB665
:1017B000F894DEBF0FBECDBF1F86A6E5B0E0E6E51C
:1017C000F0E080818B7F8C93E0E2F0E08CE080831E
:1017D000A6E5B0E0E6E5F0E0808184608C9380E0EF
:1017E00090E0A0E2B1E48B879C87AD87BE876B85D4
:1017F0007C858D859E8520E030E04AE755E40E9497
:101800001F02DC01CB018F839887A987BA876F817C
:10181000788589859A8520E030E040E85FE30E9482
:10182000250488232CF481E090E09E838D833FC0C3
:101830006F81788589859A8520E03FEF4FE757E4EF
:101840000E94C50318164CF56B857C858D859E8599
:1018500020E030E040E251E40E941F02DC01CB01B5
:10186000BC01CD010E944900DC01CB019E838D8328
:101870000FC080E991E09C838B838B819C810197D1
:10188000F1F79C838B838D819E8101979E838D834D
:101890008D819E81009769F714C06F817885898555
:1018A0009A850E944900DC01CB019E838D838D8146
:1018B0009E819A83898389819A810197F1F79A831E
:1018C00089838F852F960FB6F894DEBF0FBECDBFEC
:1018D000CF91DF910895DF93CF93CDB7DEB72F97E8
:1018E0000FB6F894DEBF0FBECDBF1F86A6E5B0E0F1
:1018F000E6E5F0E0808180628C93A6E5B0E0E6E565
:10190000F0E0808180688C93E6E5F0E080818823B8
:10191000DCF7E1E2F0E08081882F90E0887F907032
:1019200088309105B1F780E090E0A0E2B1E48B87C8
:101930009C87AD87BE876B857C858D859E8520E0E5
:1019400030E04AE755E40E941F02DC01CB018F839F
:101950009887A987BA876F81788589859A8520E0DD
:1019600030E040E85FE30E94250488232CF481E006
:1019700090E09E838D833FC06F81788589859A85AD
:1019800020E03FEF4FE757E40E94C50318164CF5DF
:101990006B857C858D859E8520E030E040E251E4BA
:1019A0000E941F02DC01CB01BC01CD010E94490055
:1019B000DC01CB019E838D830FC080E991E09C8385
:1019C0008B838B819C810197F1F79C838B838D8125
:1019D0009E8101979E838D838D819E81009769F7FB
:1019E00014C06F81788589859A850E944900DC0141
:1019F000CB019E838D838D819E819A83898389818A
:101A00009A810197F1F79A8389838F852F960FB674
:101A1000F894DEBF0FBECDBFCF91DF910895DF9365
:101A2000CF93CDB7DEB760970FB6F894DEBF0FBE89
:101A3000CDBF888B1F86E3E2F0E08889880F808322
:101A4000A6E5B0E0E6E5F0E0808180688C93E6E50D
:101A5000F0E080818823DCF7E1E2F0E08081882FEC
:101A600090E0887F907088319105B1F780E090E038
:101A7000A0E2B1E48B879C87AD87BE876B857C85B0
:101A80008D859E8520E030E04AE755E40E941F02E4
:101A9000DC01CB018F839887A987BA876F8178850E
:101AA00089859A8520E030E040E85FE30E942504C4
:101AB00088232CF481E090E09E838D833FC06F816A
:101AC000788589859A8520E03FEF4FE757E40E94AB
:101AD000C50318164CF56B857C858D859E8520E0A9
:101AE00030E040E251E40E941F02DC01CB01BC0166
:101AF000CD010E944900DC01CB019E838D830FC084
:101B000080E991E09C838B838B819C810197F1F725
:101B10009C838B838D819E8101979E838D838D8194
:101B20009E81009769F714C06F81788589859A85B1
:101B30000E944900DC01CB019E838D838D819E81B3
:101B40009A83898389819A810197F1F79A8389839E
:101B50008F8560960FB6F894DEBF0FBECDBFCF91D4
:101B6000DF910895DF93CF93CDB7DEB760970FB6BF
:101B7000F894DEBF0FBECDBF888B1F86E3E2F0E096
:101B80008889882F90E0880F991F81608083A6E55F
:101B9000B0E0E6E5F0E0808180688C93E6E5F0E077
:101BA00080818823DCF7E1E2F0E08081882F90E0FB
:101BB000887F907080349105B1F780E090E0A0E2DA
:101BC000B1E48B879C87AD87BE876B857C858D85CF
:101BD0009E8520E030E04AE755E40E941F02DC01C8
:101BE000CB018F839887A987BA876F81788589858C
:101BF0009A8520E030E040E85FE30E9425048823D6
:101C00002CF481E090E09E838D833FC06F817885C6
:101C100089859A8520E03FEF4FE757E40E94C5038E
:101C200018164CF56B857C858D859E8520E030E00F
:101C300040E251E40E941F02DC01CB01BC01CD0156
:101C40000E944900DC01CB019E838D830FC080E997
:101C500091E09C838B838B819C810197F1F79C831E
:101C60008B838D819E8101979E838D838D819E8143
:101C7000009769F714C06F81788589859A850E94DD
:101C80004900DC01CB019E838D838D819E819A83E7
:101C9000898389819A810197F1F79A8389838F8556
:101CA00060960FB6F894DEBF0FBECDBFCF91DF9127
:101CB0000895DF93CF93CDB7DEB760970FB6F89452
:101CC000DEBF0FBECDBF888B1F86E3E2F0E08889C0
:101CD0008083A6E5B0E0E6E5F0E080818F7D8C931F
:101CE000A6E5B0E0E6E5F0E0808180688C93E6E56B
:101CF000F0E080818823DCF7E1E2F0E08081882F4A
:101D000090E0887F907088329105B1F780E090E094
:101D1000A8ECB2E48B879C87AD87BE876B857C85FA
:101D20008D859E8520E030E04AE755E40E941F0241
:101D3000DC01CB018F839887A987BA876F8178856B
:101D400089859A8520E030E040E85FE30E94250421
:101D500088232CF481E090E09E838D833FC06F81C7
:101D6000788589859A8520E03FEF4FE757E40E9408
:101D7000C50318164CF56B857C858D859E8520E006
:101D800030E040E251E40E941F02DC01CB01BC01C3
:101D9000CD010E944900DC01CB019E838D830FC0E1
:101DA00080E991E09C838B838B819C810197F1F783
:101DB0009C838B838D819E8101979E838D838D81F2
:101DC0009E81009769F714C06F81788589859A850F
:101DD0000E944900DC01CB019E838D838D819E8111
:101DE0009A83898389819A810197F1F79A838983FC
:101DF0008F8560960FB6F894DEBF0FBECDBFCF9132
:101E0000DF910895DF93CF9300D00F92CDB7DEB767
:101E10009B838A831982E6E5F0E084EC8083E6E523
:101E2000F0E080818823DCF7E3E2F0E08081EA8162
:101E3000FB81808389810F900F900F90CF91DF916C
:101E40000895DF93CF9300D00F92CDB7DEB79B8379
:101E50008A831982E6E5F0E084E88083E6E5F0E035
:101E600080818823DCF7E3E2F0E08081EA81FB8176
:101E7000808389810F900F900F90CF91DF9108950B
:101E8000DF93CF930F92CDB7DEB71982A6E5B0E00E
:101E9000E6E5F0E0808180628C93A6E5B0E0E6E5BF
:101EA000F0E0808180688C93E6E5F0E08081882313
:101EB000DCF7E1E2F0E08081882F90E0887F90708D
:101EC00080319105B1F789810F90CF91DF9108950D
:101ED000DF93CF93CDB7DEB72F970FB6F894DEBF61
:101EE0000FBECDBF1F86A6E5B0E0E6E5F0E080813D
:101EF00080618C93A6E5B0E0E6E5F0E08081806843
:101F00008C9380E090E0A0E8BFE38B879C87AD874F
:101F1000BE876B857C858D859E8520E030E04AE715
:101F200055E40E941F02DC01CB018F839887A987AB
:101F3000BA876F81788589859A8520E030E040E80E
:101F40005FE30E94250488232CF481E090E09E83C7
:101F50008D833FC06F81788589859A8520E03FEF2A
:101F60004FE757E40E94C50318164CF56B857C8536
:101F70008D859E8520E030E040E251E40E941F0202
:101F8000DC01CB01BC01CD010E944900DC01CB0189
:101F90009E838D830FC080E991E09C838B838B812E
:101FA0009C810197F1F79C838B838D819E810197A2
:101FB0009E838D838D819E81009769F714C06F8108
:101FC000788589859A850E944900DC01CB019E8332
:101FD0008D838D819E819A83898389819A810197DE
:101FE000F1F79A8389838F852F960FB6F894DEBF19
:101FF0000FBECDBFCF91DF910895DF93CF930F92A6
:10200000CDB7DEB71982AFE5B0E0EFE5F0E0808153
:1020100080688C9389810F90CF91DF910895DF9331
:10202000CF930F92CDB7DEB71982AFE5B0E0EFE501
:10203000F0E080818F778C9389810F90CF91DF9131
:102040000895DF93CF930F92CDB7DEB71982ABE53A
:10205000B0E0EBE5F0E0808180648C93A5E5B0E032
:10206000E5E5F0E080818C7F8C93A5E5B0E0E5E5C7
:10207000F0E0808182608C93A5E5B0E0E5E5F0E0DA
:102080008081837F8C93A4E5B0E0E4E5F0E080817B
:102090008F7B8C93A4E5B0E0E4E5F0E08081806480
:1020A0008C9389810F90CF91DF910895DF93CF9327
:1020B000CDB7DEB729970FB6F894DEBF0FBECDBF00
:1020C0008A836B8319828A81882309F043C0A5E53E
:1020D000B0E0E5E5F0E080818C7F8C938B81282F48
:1020E00030E0398728878885998582329105B9F053
:1020F000288539852332310564F4888599858A30AD
:102100009105A9F0288539852032310509F48FC061
:102110001EC0888599858934910589F018C0A5E588
:10212000B0E0E5E5F0E0808181608C9380C0A5E5BA
:10213000B0E0E5E5F0E0808182608C9378C0A5E5B1
:10214000B0E0E5E5F0E0808183608C9370C082E0D0
:1021500089836DC08A81813009F043C0A5E5B0E074
:10216000E5E5F0E08081837F8C938B81282F30E040
:102170003F832E838E819F8182329105B9F02E811B
:102180003F812332310564F48E819F818A3091052D
:10219000A9F02E813F812032310509F448C01EC0CC
:1021A0008E819F818934910589F018C0A5E5B0E042
:1021B000E5E5F0E0808184608C9339C0A5E5B0E06E
:1021C000E5E5F0E0808188608C9331C0A5E5B0E062
:1021D000E5E5F0E080818C608C9329C082E0898302
:1021E00026C08A81823009F5A4E5B0E0E4E5F0E09C
:1021F00080818F7B8C938B81282F30E03D832C83D3
:102200008C819D818A30910591F02C813D8129340A
:10221000310541F4A4E5B0E0E4E5F0E080818064BC
:102220008C9305C082E0898302C082E08983898122
:1022300029960FB6F894DEBF0FBECDBFCF91DF91C8
:102240000895DF93CF9300D000D0CDB7DEB78A8357
:1022500019828A81282F30E03C832B838B819C81DB
:102260008130910589F02B813C8122303105A1F02C
:102270008B819C810097C1F4ABE5B0E0EBE5F0E029
:10228000808180648C9312C0ABE5B0E0EBE5F0E0B8
:10229000808180688C930AC0ABE5B0E0EBE5F0E0AC
:1022A000808180628C9302C082E0898389810F9053
:1022B0000F900F900F90CF91DF910895DF93CF9300
:1022C00000D000D0CDB7DEB78A8319828A81282F4B
:1022D00030E03C832B838B819C818130910589F098
:1022E0002B813C8122303105A1F08B819C810097AC
:1022F000C1F4ABE5B0E0EBE5F0E080818F7B8C933F
:1023000012C0ABE5B0E0EBE5F0E080818F778C9315
:102310000AC0ABE5B0E0EBE5F0E080818F7D8C9307
:1023200002C082E0898389810F900F900F900F90F7
:10233000CF91DF910895DF93CF9300D000D000D0EC
:10234000CDB7DEB79B838A836C8319828A819B8198
:10235000009751F18C81282F30E03E832D838D81B1
:102360009E818130910581F02D813E8122303105A1
:1023700091F08D819E810097A9F48A819B81909331
:102380002C0880932B0810C08A819B8190932E0883
:1023900080932D0809C08A819B8190933008809397
:1023A0002F0802C082E08983898126960FB6F894AF
:1023B000DEBF0FBECDBFCF91DF9108951F920F9268
:1023C0000FB60F9211242F933F934F935F936F9308
:1023D0007F938F939F93AF93BF93EF93FF93DF937D
:1023E000CF93CDB7DEB780912B0890912C08009742
:1023F00029F0E0912B08F0912C080995CF91DF91FD
:10240000FF91EF91BF91AF919F918F917F916F91CC
:102410005F914F913F912F910F900FBE0F901F90A2
:1024200018951F920F920FB60F9211242F933F937E
:102430004F935F936F937F938F939F93AF93BF93CC
:10244000EF93FF93DF93CF93CDB7DEB780912D0845
:1024500090912E08009729F0E0912D08F0912E0818
:102460000995CF91DF91FF91EF91BF91AF919F912E
:102470008F917F916F915F914F913F912F910F902D
:102480000FBE0F901F9018951F920F920FB60F92CC
:1024900011242F933F934F935F936F937F938F9369
:1024A0009F93AF93BF93EF93FF93DF93CF93CDB7FA
:1024B000DEB780912F0890913008009729F0E091C5
:1024C0002F08F09130080995CF91DF91FF91EF919E
:1024D000BF91AF919F918F917F916F915F914F913C
:1024E0003F912F910F900FBE0F901F901895DF9383
:1024F000CF9300D000D000D0CDB7DEB78A836B83F6
:102500004C8319828A81843008F0CFC08B81883057
:1025100008F0CBC08C81823008F0C7C08A81282F98
:1025200030E03E832D836D817E816130710509F439
:1025300041C08D819E818230910534F42D813E8190
:102540002115310571F0B3C06D817E816230710556
:1025500009F459C08D819E818330910509F47CC0B6
:10256000A6C0AAE3B0E0EAE3F0E08081482F8B81C7
:10257000282F30E081E090E002C0880F991F2A9553
:10258000E2F7809584238C93AAE3B0E0EAE3F0E0DD
:102590008081482F8C81282F30E08B81882F90E01C
:1025A000B90102C0660F771F8A95E2F7CB01842B31
:1025B0008C937DC0A7E3B0E0E7E3F0E08081482F93
:1025C0008B81282F30E081E090E002C0880F991FB6
:1025D0002A95E2F7809584238C93A7E3B0E0E7E3A4
:1025E000F0E08081482F8C81282F30E08B81882F6C
:1025F00090E0B90102C0660F771F8A95E2F7CB0120
:10260000842B8C9354C0A4E3B0E0E4E3F0E0808139
:10261000482F8B81282F30E081E090E002C0880FA6
:10262000991F2A95E2F7809584238C93A4E3B0E068
:10263000E4E3F0E08081482F8C81282F30E08B810B
:10264000882F90E0B90102C0660F771F8A95E2F7E4
:10265000CB01842B8C932BC0A1E3B0E0E1E3F0E04D
:102660008081482F8B81282F30E081E090E002C0EC
:10267000880F991F2A95E2F7809584238C93A1E314
:10268000B0E0E1E3F0E08081482F8C81282F30E03A
:102690008B81882F90E0B90102C0660F771F8A9561
:1026A000E2F7CB01842B8C9302C082E0898389817D
:1026B00026960FB6F894DEBF0FBECDBFCF91DF9147
:1026C0000895DF93CF9300D000D000D0CDB7DEB710
:1026D0008A836B834C8319828A81843008F0CBC053
:1026E0008B81883008F0C7C08A81282F30E03E8374
:1026F0002D836D817E816130710509F441C08D812A
:102700009E818230910534F42D813E812115310561
:1027100071F0B3C06D817E816230710509F459C0DA
:102720008D819E818330910509F47CC0A6C0ABE306
:10273000B0E0EBE3F0E08081482F8B81282F30E080
:1027400081E090E002C0880F991F2A95E2F78095FA
:1027500084238C93ABE3B0E0EBE3F0E08081482F7F
:102760008C81282F30E08B81882F90E0B90102C046
:10277000660F771F8A95E2F7CB01842B8C937DC07F
:10278000A8E3B0E0E8E3F0E08081482F8B81282FB8
:1027900030E081E090E002C0880F991F2A95E2F7AF
:1027A000809584238C93A8E3B0E0E8E3F0E0808197
:1027B000482F8C81282F30E08B81882F90E0B90141
:1027C00002C0660F771F8A95E2F7CB01842B8C93AA
:1027D00054C0A5E3B0E0E5E3F0E08081482F8B81B1
:1027E000282F30E081E090E002C0880F991F2A95E1
:1027F000E2F7809584238C93A5E3B0E0E5E3F0E075
:102800008081482F8C81282F30E08B81882F90E0A9
:10281000B90102C0660F771F8A95E2F7CB01842BBE
:102820008C932BC0A2E3B0E0E2E3F0E08081482F7C
:102830008B81282F30E081E090E002C0880F991F43
:102840002A95E2F7809584238C93A2E3B0E0E2E33B
:10285000F0E08081482F8C81282F30E08B81882FF9
:1028600090E0B90102C0660F771F8A95E2F7CB01AD
:10287000842B8C9302C082E08983898126960FB6CF
:10288000F894DEBF0FBECDBFCF91DF910895DF93E7
:10289000CF9300D000D00F92CDB7DEB78A836B8381
:1028A00019828A81843008F073C08B81883008F0E7
:1028B0006FC08A81282F30E03D832C838C819D81DD
:1028C0008130910549F12C813D81223031052CF474
:1028D0008C819D81009761F05DC02C813D8122300B
:1028E000310571F18C819D8183309105E9F152C0F0
:1028F000ABE3B0E0EBE3F0E08081482F8B81282F41
:1029000030E081E090E0022E02C0880F991F0A9407
:10291000E2F784278C933EC0A8E3B0E0E8E3F0E060
:102920008081482F8B81282F30E081E090E0022EBB
:1029300002C0880F991F0A94E2F784278C932AC05B
:10294000A5E3B0E0E5E3F0E08081482F8B81282FFC
:1029500030E081E090E0022E02C0880F991F0A94B7
:10296000E2F784278C9316C0A2E3B0E0E2E3F0E044
:102970008081482F8B81282F30E081E090E0022E6B
:1029800002C0880F991F0A94E2F784278C9302C033
:1029900082E0898389810F900F900F900F900F90A4
:1029A000CF91DF910895DF93CF93CDB7DEB727970F
:1029B0000FB6F894DEBF0FBECDBF8A836B835D83F5
:1029C0004C8319828A81843008F075C08B818830ED
:1029D00008F071C08A81282F30E03F832E834E811A
:1029E0005F814130510559F18E819F81823091057F
:1029F00034F42E813F812115310569F05EC04E818E
:102A00005F814230510579F18E819F81833091053C
:102A100009F43DC052C0E9E3F0E08081282F30E0A6
:102A20008B81882F90E0A90102C0559547958A9522
:102A3000E2F7CA018170EC81FD8180833EC0E6E34C
:102A4000F0E08081282F30E08B81882F90E0A90171
:102A500002C0559547958A95E2F7CA018170EC81CD
:102A6000FD8180832AC0E3E3F0E08081282F30E0FD
:102A70008B81882F90E0A90102C0559547958A95D2
:102A8000E2F7CA018170EC81FD81808316C0E0E32A
:102A9000F0E08081282F30E08B81882F90E0A90121
:102AA00002C0559547958A95E2F7CA018170EC817D
:102AB000FD81808302C082E08983898127960FB6D9
:102AC000F894DEBF0FBECDBFCF91DF910895DF93A5
:102AD000CF930F92CDB7DEB781E08983A6E2B0E055
:102AE000E6E2F0E08081887F8C93A6E2B0E0E6E247
:102AF000F0E0808186608C93A7E2B0E0E7E2F0E04E
:102B000080818F738C93A7E2B0E0E7E2F0E08081F0
:102B100080648C93A7E2B0E0E7E2F0E0808180621D
:102B20008C93A7E2B0E0E7E2F0E08081807E8C93B6
:102B3000A7E2B0E0E7E2F0E080818C93A6E2B0E0AB
:102B4000E6E2F0E08081877F8C93A6E2B0E0E6E2E7
:102B5000F0E080818F7D8C93A6E2B0E0E6E2F0E0C9
:102B6000808180688C9389810F90CF91DF91089547
:102B7000DF93CF9300D0CDB7DEB78A8381E089831E
:102B80008A81803278F4A7E2B0E0E7E2F0E0808169
:102B9000807E8C93A7E2B0E0E7E2F0E090818A814A
:102BA000892B8C9389810F900F90CF91DF9108959D
:102BB000DF93CF930F92CDB7DEB781E08983A6E292
:102BC000B0E0E6E2F0E0808180648C9389810F9030
:102BD000CF91DF910895DF93CF9300D0CDB7DEB7CB
:102BE0008A8381E089838A81883040F5A6E2B0E05B
:102BF000E6E2F0E080818F7D8C93A0E5B0E0E0E537
:102C0000F0E080818F718C93A0E5B0E0E0E5F0E02A
:102C10008081282F8A81882F90E0880F991F8295C4
:102C20009295907F9827807F9827822B8C93A6E29D
:102C3000B0E0E6E2F0E0808180628C9389810F90C1
:102C40000F90CF91DF910895DF93CF93CDB7DEB78B
:102C5000A6E2B0E0E6E2F0E080818F7D8C9380E038
:102C6000CF91DF910895DF93CF9300D00F92CDB72E
:102C7000DEB79B838A8381E08983E4E2F0E0808190
:102C80008295869586958370882F90E0EA81FB81F6
:102C900091838083EA81FB8120813181E5E2F0E04C
:102CA0008081882F90E0880F991F880F991F822BB1
:102CB000932BEA81FB819183808389810F900F9010
:102CC0000F90CF91DF910895DF93CF9300D00F92B3
:102CD000CDB7DEB79B838A8381E08983E5E2F0E0AC
:102CE0008081EA81FB81808389810F900F900F9012
:102CF000CF91DF910895DF93CF9300D00F92CDB79E
:102D0000DEB79B838A8381E08983E6E2F0E08081FD
:102D100082958F70882F90E0817090700097A9F352
:102D2000E4E2F0E080818295869586958370882F15
:102D300090E0EA81FB8191838083EA81FB8120819D
:102D40003181E5E2F0E08081882F90E0880F991FC3
:102D5000880F991F822B932BEA81FB8191838083BB
:102D6000A6E2B0E0E6E2F0E0808180618C938981A8
:102D70000F900F900F90CF91DF910895DF93CF9335
:102D800000D00F92CDB7DEB79B838A8381E0898321
:102D90008A819B81009731F08A819B8190933208D0
:102DA0008093310889810F900F900F90CF91DF9120
:102DB0000895DF93CF930F92CDB7DEB781E089837B
:102DC00089810F90CF91DF910895DF93CF930F9278
:102DD000CDB7DEB781E0898389810F90CF91DF91F4
:102DE0000895DF93CF930F92CDB7DEB781E089834B
:102DF000A6E2B0E0E6E2F0E0808188608C93898111
:102E00000F90CF91DF910895DF93CF930F92CDB7BD
:102E1000DEB781E0898389810F90CF91DF9108959A
:102E20001F920F920FB60F9211242F933F934F933F
:102E30005F936F937F938F939F93AF93BF93EF9322
:102E4000FF93DF93CF93CDB7DEB780913108909198
:102E50003208009729F0E0913108F0913208099585
:102E6000CF91DF91FF91EF91BF91AF919F918F91A2
:102E70007F916F915F914F913F912F910F900FBE76
:102E80000F901F901895DF93CF930F92CDB7DEB7B9
:102E900019820E9467150E94D81584E398E00E9469
:102EA0007B1689810F90CF91DF910895DF93CF93A7
:102EB000CDB7DEB70E94D81584E398E00E947B1658
:102EC0008091340890913508CC01A0E0B0E024EF67
:102ED00031E040E050E0BC01CD010E942F3ADC011E
:102EE000CB01072E7AE0B695A795979587957A95A9
:102EF000D1F7702D90933508809334088091340871
:102F000090913508CF91DF910895DF93CF93CDB79E
:102F1000DEB70E940E0882E390E00E945B0880E02A
:102F2000CF91DF910895DF93CF9300D0CDB7DEB777
:102F30008A8319828A81882F90E00E94C0080E94AB
:102F4000F80889810F900F90CF91DF910895DF935A
:102F5000CF93CDB7DEB70E940A0980E0CF91DF9111
:102F60000895DF93CF930F92CDB7DEB7198280E03B
:102F700061E041E00E94771280E062E041E00E945F
:102F8000771280E063E041E00E94771281E060E028
:102F900041E00E94771282E066E041E00E947712F1
:102FA00080E061E040E00E94611380E062E040E088
:102FB0000E94611380E063E040E00E94611381E0C1
:102FC00060E040E00E94611382E066E040E00E9421
:102FD000611389810F90CF91DF910895DF93CF9393
:102FE00000D000D0CDB7DEB78A8319828A81282F1E
:102FF00030E03C832B838B819C818330910539F1B8
:103000002B813C81243031055CF48B819C818130A3
:10301000910589F02B813C812230310591F029C046
:103020008B819C8184309105C1F02B813C812530BE
:103030003105C9F01EC080E061E041E00E946113EB
:103040001AC080E062E041E00E94611314C080E099
:1030500063E041E00E9461130EC081E060E041E066
:103060000E94611308C082E066E041E00E946113A3
:1030700002C082E0898389810F900F900F900F909A
:10308000CF91DF910895DF93CF9300D000D0CDB7DB
:10309000DEB78A8319828A81282F30E03C832B8314
:1030A0008B819C818330910539F12B813C812430C7
:1030B00031055CF48B819C818130910589F02B81F5
:1030C0003C812230310591F029C08B819C81843074
:1030D0009105C1F02B813C8125303105C9F01EC01E
:1030E00080E061E040E00E9461131AC080E062E08D
:1030F00040E00E94611314C080E063E040E00E9461
:1031000061130EC081E060E040E00E94611308C0DE
:1031100082E066E040E00E94611302C082E08983A1
:1031200089810F900F900F900F90CF91DF910895AC
:10313000DF93CF9300D000D0CDB7DEB78A8319825A
:103140008A81282F30E03C832B838B819C818330C4
:10315000910529F12B813C81243031055CF48B8170
:103160009C818130910589F02B813C812230310591
:1031700089F024C08B819C8184309105A9F02B813A
:103180003C8125303105A9F019C080E061E00E9442
:10319000471416C080E062E00E94471411C080E02E
:1031A00063E00E9447140CC081E060E00E94471475
:1031B00007C082E066E00E94471402C082E0898373
:1031C00089810F900F900F900F90CF91DF9108950C
:1031D000DF93CF93CDB7DEB7EA970FB6F894DEBF93
:1031E0000FBECDBF8AAF19AE81E062E040E00E9421
:1031F000611381E063E040E00E9461138AAD982F83
:10320000991F9927991F80E067E0492F0E94611359
:103210008AAD8295869586958370982F917080E00F
:1032200066E0492F0E9461138AAD8295869587706A
:10323000982F917080E065E0492F0E9461138AAD5C
:1032400082958F70982F917080E064E0492F0E94E2
:10325000611381E063E041E00E94611380E090E04F
:10326000A0E8BFE38DAB9EABAFABB8AF6DA97EA9B5
:103270008FA998AD20E030E04AE755E40E941F0294
:10328000DC01CB0189AB9AABABABBCAB69A97AA92A
:103290008BA99CA920E030E040E85FE30E94250470
:1032A00088232CF481E090E098AB8FA73FC069A9F8
:1032B0007AA98BA99CA920E03FEF4FE757E40E9431
:1032C000C50318164CF56DA97EA98FA998AD20E00D
:1032D00030E040E251E40E941F02DC01CB01BC015E
:1032E000CD010E944900DC01CB0198AB8FA70FC034
:1032F00080E991E09EA78DA78DA59EA50197F1F786
:103300009EA78DA78FA598A9019798AB8FA78FA58A
:1033100098A9009769F714C069A97AA98BA99CA9F3
:103320000E944900DC01CB0198AB8FA78FA598A91B
:103330009CA78BA78BA59CA50197F1F79CA78BA7B2
:1033400081E063E040E00E94611380E090E0A0E053
:10335000B0E48FA398A7A9A7BAA76FA178A589A55C
:103360009AA520E030E04AE755E40E941F02DC0104
:10337000CB018BA39CA3ADA3BEA36BA17CA18DA10C
:103380009EA120E030E040E85FE30E94250488230E
:103390002CF481E090E09AA389A33FC06BA17CA1AB
:1033A0008DA19EA120E03FEF4FE757E40E94C503A7
:1033B00018164CF56FA178A589A59AA520E030E0F4
:1033C00040E251E40E941F02DC01CB01BC01CD01AF
:1033D0000E944900DC01CB019AA389A30FC080E9B8
:1033E00091E098A38F8F8F8D98A10197F1F798A303
:1033F0008F8F89A19AA101979AA389A389A19AA1E4
:10340000009769F714C06BA17CA18DA19EA10E94B9
:103410004900DC01CB019AA389A389A19AA19E8FBF
:103420008D8F8D8D9E8D0197F1F79E8F8D8F8AAD3B
:10343000869586958695982F917080E067E0492F54
:103440000E9461138AAD86958695982F917080E0D1
:1034500066E0492F0E9461138AAD8695982F91707E
:1034600080E065E0492F0E9461138AAD982F91702A
:1034700080E064E0492F0E94611381E063E041E055
:103480000E94611380E090E0A0E8BFE3898F9A8FEB
:10349000AB8FBC8F698D7A8D8B8D9C8D20E030E059
:1034A0004AE755E40E941F02DC01CB018D8B9E8B05
:1034B000AF8BB88F6D897E898F89988D20E030E041
:1034C00040E85FE30E94250488232CF481E090E02B
:1034D0009C8B8B8B3FC06D897E898F89988D20E076
:1034E0003FEF4FE757E40E94C50318164CF5698D6E
:1034F0007A8D8B8D9C8D20E030E040E251E40E947B
:103500001F02DC01CB01BC01CD010E944900DC019E
:10351000CB019C8B8B8B0FC080E991E09A8B898BC0
:1035200089899A890197F1F79A8B898B8B899C8974
:1035300001979C8B8B8B8B899C89009769F714C0B2
:103540006D897E898F89988D0E944900DC01CB01AD
:103550009C8B8B8B8B899C89988B8F878F85988987
:103560000197F1F7988B8F8781E063E040E00E943C
:10357000611380E090E0A0E0B0E48B879C87AD878A
:10358000BE876B857C858D859E8520E030E04AE78F
:1035900055E40E941F02DC01CB018F839887A98725
:1035A000BA876F81788589859A8520E030E040E888
:1035B0005FE30E94250488232CF481E090E09E8341
:1035C0008D833FC06F81788589859A8520E03FEFA4
:1035D0004FE757E40E94C50318164CF56B857C85B0
:1035E0008D859E8520E030E040E251E40E941F027C
:1035F000DC01CB01BC01CD010E944900DC01CB0103
:103600009E838D830FC080E991E09C838B838B81A7
:103610009C810197F1F79C838B838D819E8101971B
:103620009E838D838D819E81009769F714C06F8181
:10363000788589859A850E944900DC01CB019E83AB
:103640008D838D819E819A83898389819A81019757
:10365000F1F79A83898389ADEA960FB6F894DEBFB5
:103660000FBECDBFCF91DF910895DF93CF93CDB73C
:10367000DEB76D970FB6F894DEBF0FBECDBF1D8EBF
:1036800081E061E041E00E94771281E062E041E088
:103690000E94771281E063E041E00E94771280E0AF
:1036A00067E041E00E94771280E066E041E00E941E
:1036B000771280E065E041E00E94771280E064E0EC
:1036C00041E00E94771280E067E040E00E946113D1
:1036D00080E066E040E00E94611380E065E041E048
:1036E0000E94611380E064E040E00E94611381E089
:1036F00063E041E00E94611380E090E0A0E8BFE356
:10370000898F9A8FAB8FBC8F698D7A8D8B8D9C8DB5
:1037100020E030E04AE755E40E941F02DC01CB01C3
:103720008D8B9E8BAF8BB88F6D897E898F89988D9D
:1037300020E030E040E85FE30E94250488232CF479
:1037400081E090E09C8B8B8B3FC06D897E898F8957
:10375000988D20E03FEF4FE757E40E94C50318160D
:103760004CF5698D7A8D8B8D9C8D20E030E040E2A8
:1037700051E40E941F02DC01CB01BC01CD010E947B
:103780004900DC01CB019C8B8B8B0FC080E991E061
:103790009A8B898B89899A890197F1F79A8B898B02
:1037A0008B899C8901979C8B8B8B8B899C8900973B
:1037B00069F714C06D897E898F89988D0E944900B0
:1037C000DC01CB019C8B8B8B8B899C89988B8F87A1
:1037D0008F8598890197F1F7988B8F8781E063E057
:1037E00040E00E94611380E090E0A0E0B0E48B87AD
:1037F0009C87AD87BE876B857C858D859E8520E007
:1038000030E04AE755E40E941F02DC01CB018F83C0
:103810009887A987BA876F81788589859A8520E0FE
:1038200030E040E85FE30E94250488232CF481E027
:1038300090E09E838D833FC06F81788589859A85CE
:1038400020E03FEF4FE757E40E94C50318164CF500
:103850006B857C858D859E8520E030E040E251E4DB
:103860000E941F02DC01CB01BC01CD010E94490076
:10387000DC01CB019E838D830FC080E991E09C83A6
:103880008B838B819C810197F1F79C838B838D8146
:103890009E8101979E838D838D819E81009769F71C
:1038A00014C06F81788589859A850E944900DC0162
:1038B000CB019E838D838D819E819A8389838981AB
:1038C0009A810197F1F79A83898381E061E040E072
:1038D0000E94611388E20E94E81881E061E040E004
:1038E0000E9461138FE00E94E81881E061E040E0EF
:1038F0000E94611381E00E94E81881E061E040E0ED
:103900000E94611386E00E94E8188D8D6D960FB6B7
:10391000F894DEBF0FBECDBFCF91DF910895DF9346
:10392000CF9300D0CDB7DEB78A83198281E061E002
:1039300041E00E9461138A810E94E81889810F90FA
:103940000F90CF91DF910895DF93CF9300D0CDB743
:10395000DEB78A83198281E061E040E00E94611352
:103960008A810E94E81889810F900F90CF91DF9192
:103970000895DF93CF9300D00F92CDB7DEB79B832E
:103980008A83198210C081E061E041E00E946113E6
:10399000EA81FB8120818A819B8101969B838A83B6
:1039A000822F0E94E818EA81FB818081882359F7E1
:1039B00089810F900F900F90CF91DF910895DF9341
:1039C000CF930F92CDB7DEB7198281E061E040E07E
:1039D0000E94611381E00E94E81880E80E94A41C04
:1039E00089810F90CF91DF910895DF93CF930F924C
:1039F000CDB7DEB7198288E10E94A41C89810F909F
:103A0000CF91DF910895DF93CF930F92CDB7DEB7BB
:103A100019828CE10E94A41C89810F90CF91DF91C3
:103A20000895DF93CF9300D000D000D0CDB7DEB79C
:103A30009C838B836D834E831A828D81882F90E0C7
:103A40000896880F991F880F991F880F991F0E9449
:103A5000A41C19820EC08981282F30E08B819C81A3
:103A6000FC01E20FF31F80810E948F1C89818F5F10
:103A700089838981282F30E08E81882F90E0880FFC
:103A8000991F880F991F880F991F281739071CF352
:103A90008A8126960FB6F894DEBF0FBECDBFCF91B8
:103AA000DF910895DF93CF9300D0CDB7DEB78A833F
:103AB00081E089838A81882F90E04096880F991F42
:103AC000880F991F880F991F0E94A41C89810F904D
:103AD0000F90CF91DF910895DF93CF9300D0CDB7B2
:103AE000DEB78A8319828A810E948F1C89810F9098
:103AF0000F90CF91DF910895DF93CF93CDB7DEB7CD
:103B000061970FB6F894DEBF0FBECDBF9A87898745
:103B10002DB73EB7398B288B8DB79EB79C878B8787
:103B200081E08E8389859A859D838C831B8289851C
:103B30009A85009799F480E30E946C1D3E813F872F
:103B40006BC08C819D812AE030E0B9010E94623A0D
:103B5000CB019D838C838B818F5F8B838C819D8137
:103B6000009779F78B81882F90E02DB73EB7281BFF
:103B7000390B0FB6F8943EBF0FBE2DBF8DB79EB761
:103B800001969E878D878D859E8500969E878D8761
:103B90002D853E8538872F8389859A859D838C83E3
:103BA0008B818A8320C08A81882F90E0FC01319725
:103BB0008C819D812AE030E0B9010E94623A282F71
:103BC000205D8F819885E80FF91F20838C819D816E
:103BD0002AE030E0B9010E94623ACB019D838C83D8
:103BE0008A8181508A838A818823E9F619820EC0EE
:103BF0008981282F30E08F819885FC01E20FF31F27
:103C000080810E946C1D89818F5F898399818B815E
:103C1000981770F33E813F878B859C850FB6F8948B
:103C20009EBF0FBE8DBF8F85288939890FB6F89446
:103C30003EBF0FBE2DBF61960FB6F894DEBF0FBE1C
:103C4000CDBFCF91DF910895DF93CF93CDB7DEB78E
:103C50002D970FB6F894DEBF0FBECDBF6A877B8766
:103C60008C879D8719866A857B858C859D850E94BA
:103C70004900DC01CB018D839E83AF83B8878D81A2
:103C80009E810E947C1D8EE20E946C1D6D817E8152
:103C90008F8198850E94A9049B01AC016A857B8570
:103CA0008C859D850E94C101DC01CB01BC01CD0149
:103CB00020E030E04AE754E40E941F02DC01CB011F
:103CC000BC01CD010E944900DC01CB0189839A83AC
:103CD000AB83BC8389819A810E947C1D89852D9646
:103CE0000FB6F894DEBF0FBECDBFCF91DF91089520
:103CF000DF93CF9300D00F92CDB7DEB78A836B836B
:103D000019828A81823098F48B81813180F48A8192
:103D1000882329F48B8180580E94A41C0AC08A81C0
:103D2000813039F48B8180540E94A41C02C081E050
:103D3000898389810F900F900F90CF91DF91089523
:103D4000DF93CF930F92CDB7DEB781E0898381E017
:103D500064E041E00E94771281E065E041E00E946A
:103D6000771281E066E041E00E94771281E067E02F
:103D700041E00E94771282E062E040E00E94771208
:103D800082E063E040E00E94771282E064E040E07D
:103D90000E94771282E065E040E00E94771281E0A5
:103DA00064E041E00E94611381E065E041E00E942F
:103DB000611381E066E041E00E94611381E067E009
:103DC00041E00E94611382E062E041E00E946113E1
:103DD00082E063E041E00E94611382E064E041E040
:103DE0000E94611382E065E041E00E9461138981D5
:103DF0000F90CF91DF910895DF93CF93CDB7DEB7CA
:103E0000EA970FB6F894DEBF0FBECDBF9DAB8CAB6B
:103E100081E08A8B81E08B8B81E08C8B81E08D8BC4
:103E200081E08E8B84E08F8B85E0888F86E0898FA0
:103E300087E08A8F82E08B8F82E08C8F82E08D8F8B
:103E400082E08E8F82E08F8F83E088A384E089A355
:103E500085E08AA3ECA9FDA98FEF80831BA2198AB4
:103E6000188A1F8644C18989282F30E0CE014396E5
:103E7000FC01E20FF31F40818989282F30E0CE0139
:103E80004796FC01E20FF31F9081842F692F40E0D9
:103E90000E946113188A08C18889282F30E0CE015A
:103EA0004B96FC01E20FF31F40818889282F30E0F8
:103EB000CE014F96FC01E20FF31F90819E012D5D14
:103EC0003F4F842F692FA9010E94D3148BA188230F
:103ED00009F0E7C080E090E0A0E2B1E48B879C8726
:103EE000AD87BE876B857C858D859E8520E030E023
:103EF0004AE755E40E941F02DC01CB018F839887BB
:103F0000A987BA876F81788589859A8520E030E016
:103F100040E85FE30E94250488232CF481E090E0D0
:103F20009E838D833FC06F81788589859A8520E047
:103F30003FEF4FE757E40E94C50318164CF56B8519
:103F40007C858D859E8520E030E040E251E40E9432
:103F50001F02DC01CB01BC01CD010E944900DC0144
:103F6000CB019E838D830FC080E991E09C838B837E
:103F70008B819C810197F1F79C838B838D819E813E
:103F800001979E838D838D819E81009769F714C070
:103F90006F81788589859A850E944900DC01CB0173
:103FA0009E838D838D819E819A83898389819A8165
:103FB0000197F1F79A8389838889282F30E0CE0111
:103FC0004B96FC01E20FF31F40818889282F30E0D7
:103FD000CE014F96FC01E20FF31F90819E012D5DF3
:103FE0003F4F842F692FA9010E94D3148BA18823EE
:103FF00009F057C01AC08889282F30E0CE014B96AF
:10400000FC01E20FF31F40818889282F30E0CE01A8
:104010004F96FC01E20FF31F90819E012D5D3F4FF3
:10402000842F692FA9010E94D3148BA1882319F32F
:10403000CE0184969FAB8EABEBE0F8E0F9AFE8AF32
:10404000F0E1FAAFE8ADF9AD008088AD99AD019629
:1040500099AF88AFEEA9FFA900828EA99FA901960A
:104060009FAB8EAB9AAD91509AAFEAADEE2351F76C
:1040700081E08F878889282F30E08989482F50E098
:10408000220F331F220F331FCE010196820F931F81
:10409000840F951FFC01B3968081ECA9FDA9808354
:1040A00007C088898F5F888B8889843008F4F4CEB4
:1040B0008989282F30E0CE014396FC01E20FF31FDF
:1040C00040818989282F30E0CE014796FC01E20F1C
:1040D000F31F9081842F692F41E00E9461138F8527
:1040E000882311F01A8A07C089898F5F898B898993
:1040F000843008F4B8CE8A89EA960FB6F894DEBF09
:104100000FBECDBFCF91DF910895DF93CF930F9274
:10411000CDB7DEB719820E94170789810F90CF9122
:10412000DF910895DF93CF9300D00F92CDB7DEB724
:104130009B838A8319828A819B810E94A10789813E
:104140000F900F900F90CF91DF910895DF93CF9351
:1041500000D00F92CDB7DEB79B838A8319828A8104
:104160009B810E94CF0789810F900F900F90CF9174
:10417000DF910895DF93CF9300D00F92CDB7DEB7D4
:104180009B838A8319828A819B810E94850789810A
:104190000F900F900F90CF91DF910895DF93CF9301
:1041A0000F92CDB7DEB719820E94D20B89810F9092
:1041B000CF91DF910895DF93CF9300D000D0CDB79A
:1041C000DEB78A836B834C8319828B81883078F4C5
:1041D0000E946B0C8B8180650E940F0D8C810E9468
:1041E000590E8A810E94590E0E94680F02C082E017
:1041F000898389810F900F900F900F90CF91DF915D
:104200000895DF93CF9300D000D000D0CDB7DEB7B4
:104210009C838B836D834E8319828D818830D8F483
:104220001A820E946B0C8D8180650E940F0D8E8119
:104230000E94590E0E94400F8D8180650E94B20D30
:10424000CE0102960E94210F8A81EB81FC8180833E
:104250000E94680F02C082E08983898126960FB68A
:10426000F894DEBF0FBECDBFCF91DF910895DF93ED
:10427000CF930F92CDB7DEB719820E940E0882E36A
:1042800090E00E945B0889810F90CF91DF910895A3
:10429000DF93CF9300D0CDB7DEB78A8319828A81AE
:1042A000853610F084E68A838A810E9489080E94FC
:1042B000F80889810F900F90CF91DF910895DF93D7
:1042C000CF93CDB7DEB70E94F80883E065E041E008
:1042D0000E94611380E0CF91DF910895DF93CF9327
:1042E000CDB7DEB70E940A0980E0CF91DF91089533
:1042F000DF93CF930F92CDB7DEB7198283E066E0EC
:1043000041E00E94771283E067E041E00E9477126B
:1043100089810F90CF91DF910895DF93CF9300D0E3
:10432000CDB7DEB78A8319828A81813059F483E060
:1043300066E041E00E94611383E067E040E00E9494
:10434000611310C08A81823059F483E066E040E056
:104350000E94611383E067E041E00E94611302C0A4
:1043600081E0898389810F900F90CF91DF9108952B
:10437000DF93CF9300D0CDB7DEB78A8319828A81CD
:104380000E949C0A89810F900F90CF91DF91089530
:10439000DF93CF930F92CDB7DEB719820E94AE0A9A
:1043A00089810F90CF91DF910895DF93CF930F9282
:1043B000CDB7DEB719820E94B80A83E066E040E01C
:1043C0000E94611383E067E040E00E9461138981ED
:1043D0000F90CF91DF910895DF93CF930F92CDB7D8
:1043E000DEB7198282E067E041E00E94771289819E
:1043F0000F90CF91DF910895DF93CF930F92CDB7B8
:10440000DEB7198282E067E041E00E946113898192
:104410000F90CF91DF910895DF93CF930F92CDB797
:10442000DEB7198282E067E040E00E946113898173
:104430000F90CF91DF910895DF93CF93CDB7DEB783
:104440006D970FB6F894DEBF0FBECDBF1D8E0E94D4
:10445000FC2180E090E0A8E4B2E4898F9A8FAB8FD2
:10446000BC8F698D7A8D8B8D9C8D20E030E04AE782
:1044700055E40E941F02DC01CB018D8B9E8BAF8B1C
:10448000B88F6D897E898F89988D20E030E040E873
:104490005FE30E94250488232CF481E090E09C8B4C
:1044A0008B8B3FC06D897E898F89988D20E03FEF8F
:1044B0004FE757E40E94C50318164CF5698D7A8DB5
:1044C0008B8D9C8D20E030E040E251E40E941F0281
:1044D000DC01CB01BC01CD010E944900DC01CB0114
:1044E0009C8B8B8B0FC080E991E09A8B898B89899B
:1044F0009A890197F1F79A8B898B8B899C8901970F
:104500009C8B8B8B8B899C89009769F714C06D8974
:104510007E898F89988D0E944900DC01CB019C8B9C
:104520008B8B8B899C89988B8F878F859889019736
:10453000F1F7988B8F870E940C2280E090E0A8E42E
:10454000B2E48B879C87AD87BE876B857C858D8524
:104550009E8520E030E04AE755E40E941F02DC011E
:10456000CB018F839887A987BA876F8178858985E2
:104570009A8520E030E040E85FE30E94250488232C
:104580002CF481E090E09E838D833FC06F8178851D
:1045900089859A8520E03FEF4FE757E40E94C503E5
:1045A00018164CF56B857C858D859E8520E030E066
:1045B00040E251E40E941F02DC01CB01BC01CD01AD
:1045C0000E944900DC01CB019E838D830FC080E9EE
:1045D00091E09C838B838B819C810197F1F79C8375
:1045E0008B838D819E8101979E838D838D819E819A
:1045F000009769F714C06F81788589859A850E9434
:104600004900DC01CB019E838D838D819E819A833D
:10461000898389819A810197F1F79A8389838D8DA6
:104620006D960FB6F894DEBF0FBECDBFCF91DF9170
:104630000895DF93CF930F92CDB7DEB7198283E051
:1046400062E040E00E94771283E062E040E00E9476
:10465000611389810F90CF91DF910895DF93CF93FC
:10466000CDB7DEB762970FB6F894DEBF0FBECDBFF1
:104670009A8B898B1F86188A9E01205F3F4F83E0AB
:1046800062E0A9010E94D3148889882309F47AC0C2
:1046900080E090E0A0E2B1E48B879C87AD87BE8785
:1046A0006B857C858D859E8520E030E04AE755E46A
:1046B0000E941F02DC01CB018F839887A987BA87EC
:1046C0006F81788589859A8520E030E040E85FE356
:1046D0000E94250488232CF481E090E09E838D8342
:1046E0003FC06F81788589859A8520E03FEF4FE74D
:1046F00057E40E94C50318164CF56B857C858D85A3
:104700009E8520E030E040E251E40E941F02DC017F
:10471000CB01BC01CD010E944900DC01CB019E838D
:104720008D830FC080E991E09C838B838B819C817A
:104730000197F1F79C838B838D819E8101979E83E6
:104740008D838D819E81009769F714C06F81788574
:1047500089859A850E944900DC01CB019E838D8367
:104760008D819E819A83898389819A810197F1F74E
:104770009A8389839E01205F3F4F83E062E0A90115
:104780000E94D3148889E989FA8980838F8562968B
:104790000FB6F894DEBF0FBECDBFCF91DF91089565
:1047A0000F93DF93CF93CDB7DEB7C455D0400FB68C
:1047B000F894DEBF0FBECDBF0E94351B0E94A01E25
:1047C0000E94FD0F0E9467150E9478210E948517A4
:1047D0000E94B1170E9443170E9485200E94CE209C
:1047E0000E9419230E94EC2185E00E9493170E94E9
:1047F00092371AAECE01CA9660E04AE50E940121C6
:104800001BAE1CAE1DAE1EAEFE01FF9610821182C5
:1048100012821382FE01ED5BFF4F8FEF808319AE92
:10482000CE018C5B9F4F25E0FC01DF01322F1D92F2
:104830003A95E9F7FE01E75BFF4F85E08083FE01D3
:10484000E65BFF4F1082FE01E55BFF4F1082FE0129
:10485000E45BFF4F1082FE01E35BFF4F108280910B
:104860003308A82FB0E06596BFAFAEAF65976596E9
:104870002EAD3FAD65972330310509F47FC06596B5
:104880008EAD9FAD659784309105B4F46596AEAD5D
:10489000BFAD6597A130B105B1F165962EAD3FADC5
:1048A0006597223031050CF0C7C065968EAD9FAD7F
:1048B00065970097D1F0D3CF6596AEADBFAD659744
:1048C000A530B10509F4C2C365962EAD3FAD65971D
:1048D000253031050CF48BC165968EAD9FAD659783
:1048E0008630910509F45BC4BACF0E94DF1C80E6D4
:1048F00090E00E94B91C86E790E00E94922081E03F
:1049000080933308ACCFFE01ED5BFF4F8FEF8083C8
:104910000E94DF1C8EE890E00E94B91C8CE990E0B8
:104920000E94922081E060E00E94781E8CEA90E074
:104930000E94B91C89EB90E00E94922018C0CE0121
:104940008D5B9F4F0E94FC1EFE01ED5BFF4F80813F
:10495000813321F482E08093330809C0FE01ED5BCE
:10496000FF4F8081823319F483E080933308FE0186
:10497000ED5BFF4F80818F3F11F371CF19AE56C0B1
:104980000E94DF1C88EC90E00E94B91CCE01CB96FF
:1049900062E00E944A290E94DF1C89ED90E00E949B
:1049A000B91CCE01CF9662E00E94AB2ACE01CB9615
:1049B0009E01215C3F4FAE01435B5F4FB9010E94F6
:1049C0001C31FE01E35BFF4F8081813021F485E0E3
:1049D000809333082FC0FE01E35BFF4F8081882363
:1049E00029F589AD8F5F89AF89AD8330F9F485E012
:1049F0000E949317FE01E75BFF4F85E080830E94D2
:104A0000FC210E94DF1CFE01ED5BFF4F1082CE01F6
:104A10008D5B9F4F0E942E23FE01ED5BFF4F808137
:104A20008130A9F70E940C221092330889AD83309F
:104A300008F4A6CF19AE13CF0E94DF1C8EEE90E0D3
:104A40000E94B91C81E060E00E94781E89EF90E02E
:104A50000E94B91C80E090E8ABEBB4E48DAB9EAB58
:104A6000AFABB8AF6DA97EA98FA998AD20E030E0BB
:104A70004AE755E40E941F02DC01CB0189AB9AABE7
:104A8000ABABBCAB69A97AA98BA99CA920E030E0AB
:104A900040E85FE30E94250488232CF481E090E045
:104AA00098AB8FA73FC069A97AA98BA99CA920E0E0
:104AB0003FEF4FE757E40E94C50318164CF56DA968
:104AC0007EA98FA998AD20E030E040E251E40E9439
:104AD0001F02DC01CB01BC01CD010E944900DC01B9
:104AE000CB0198AB8FA70FC080E991E09EA78DA75F
:104AF0008DA59EA50197F1F79EA78DA78FA598A9D3
:104B0000019798AB8FA78FA598A9009769F769C0FF
:104B100069A97AA98BA99CA90E944900DC01CB0153
:104B200098AB8FA78FA598A99CA78BA78BA59CA5B1
:104B30000197F1F79CA78BA754C087E091E00E94F2
:104B40009220CE01CB9661E00E944A298AE191E051
:104B50000E949220CE01CF9661E00E94AB2AFE0116
:104B6000E35BFF4F1082CE01CB969E01215C3F4F4D
:104B7000AE01435B5F4FB9010E94F62BFE01E35B80
:104B8000FF4F8081813021F484E0809333082DC071
:104B9000FE01E35BFF4F8081882319F589AD8F5FAC
:104BA00089AF89AD8330E9F485E00E949317FE0157
:104BB000E75BFF4F85E080830E94FC21FE01E25B02
:104BC000FF4F1082CE01825B9F4F0E942E23FE0179
:104BD000E25BFF4F80818130A9F70E940C22109286
:104BE000330889AD833008F4A8CF19AE38CEFE0162
:104BF000E45BFF4F10820E94DF1C81E391E00E9482
:104C0000922083E591E00E94922088E691E00E9444
:104C100092208AE791E00E9492208CE891E00E9425
:104C200092208EE991E00E94922083EB91E00E9415
:104C300092208CEC91E00E94922082EE91E00E9402
:104C4000922088EF91E00E949220CE01845B9F4FDA
:104C50000E94BA2080E092E00E949220FE01E45B74
:104C6000FF4F8081A82FB0E06396BFAFAEAF6397D0
:104C700063962EAD3FAD63972533310509F49CC192
:104C800063968EAD9FAD63978633910544F5639629
:104C9000AEADBFAD6397A233B10509F447C06396CB
:104CA0002EAD3FAD63972333310544F463968EAD4B
:104CB0009FAD63978133910599F1D1CD6396AEADE8
:104CC000BFAD6397A333B10509F4CFC063962EAD92
:104CD0003FAD63972433310509F456C1C0CD6396C7
:104CE0008EAD9FAD63978733910509F47FC16396BD
:104CF000AEADBFAD6397A733B1050CF463C1639646
:104D00002EAD3FAD63972833310509F477C1639623
:104D10008EAD9FAD63978933910509F480C19FCD16
:104D2000CE01875B9F4F0E94373499CD0E94DF1CD4
:104D300089EF90E00E94B91C80E090E0AAE7B4E41B
:104D40008FA398A7A9A7BAA76FA178A589A59AA5A7
:104D500020E030E04AE755E40E941F02DC01CB016D
:104D60008BA39CA3ADA3BEA36BA17CA18DA19EA18F
:104D700020E030E040E85FE30E94250488232CF423
:104D800081E090E09AA389A33FC06BA17CA18DA193
:104D90009EA120E03FEF4FE757E40E94C50318169D
:104DA0004CF56FA178A589A59AA520E030E040E2F6
:104DB00051E40E941F02DC01CB01BC01CD010E9425
:104DC0004900DC01CB019AA389A30FC080E991E0DF
:104DD00098A38F8F8F8D98A10197F1F798A38F8F4C
:104DE00089A19AA101979AA389A389A19AA1009761
:104DF00069F714C06BA17CA18DA19EA10E944900FE
:104E0000DC01CB019AA389A389A19AA19E8F8D8FE2
:104E10008D8D9E8D0197F1F79E8F8D8F0E94DF1CE7
:104E200083E092E00E94B91C83E192E00E9492200C
:104E3000CE01CB9661E00E944A290E94DF1C89E2E4
:104E400092E00E949220CE01CF9661E00E94AB2AB0
:104E500080E092E00E949220CE01CB969E01215CE0
:104E60003F4FB9010E94A22EFACCCE01CA9660E053
:104E70004AE50E9401210E94DF1C8AE392E00E9421
:104E8000B91C80E090E0AAE7B4E4898F9A8FAB8FD9
:104E9000BC8F698D7A8D8B8D9C8D20E030E04AE748
:104EA00055E40E941F02DC01CB018D8B9E8BAF8BE2
:104EB000B88F6D897E898F89988D20E030E040E839
:104EC0005FE30E94250488232CF481E090E09C8B12
:104ED0008B8B3FC06D897E898F89988D20E03FEF55
:104EE0004FE757E40E94C50318164CF5698D7A8D7B
:104EF0008B8D9C8D20E030E040E251E40E941F0247
:104F0000DC01CB01BC01CD010E944900DC01CB01D9
:104F10009C8B8B8B0FC080E991E09A8B898B898960
:104F20009A890197F1F79A8B898B8B899C890197D4
:104F30009C8B8B8B8B899C89009769F714C06D893A
:104F40007E898F89988D0E944900DC01CB019C8B62
:104F50008B8B8B899C89988B8F878F8598890197FC
:104F6000F1F7988B8F8788E492E00E949220CE011F
:104F7000CB9661E00E944A298AAD9E01255C3F4F95
:104F8000B9010E9436336BCC84E792E00E949220F4
:104F9000FE01E45BFF4F1082CE01845B9F4F0E94B5
:104FA000BA20FE01E45BFF4F2081CE018C5B9F4F56
:104FB000622F0E94593553CCCE01865B9F4F0E94D1
:104FC000F5334DCC8BE992E00E949220CE01845BB8
:104FD0009F4F0E94BA20FE01E45BFF4F2081CE016B
:104FE000855B9F4F622F0E94C73639CC82EC92E0DE
:104FF0000E94922083E08093330831CCCE01865BFF
:105000009F4F9E01275B3F4FAE014C5B5F4FFE0100
:10501000E55BFF4FB9019F010E948C3820CCFE0157
:10502000E65BFF4F4081FE01E75BFF4F5081FE01D1
:10503000E55BFF4F708183E398E09E012C5B3F4F5F
:10504000642F452F072F0E94E43809CC0E94DF1CF3
:1050500080EE92E00E94B91C81E060E00E94781E20
:105060008CEE92E00E94B91CFE01ED5BFF4F8FEFCA
:1050700080838DC0CE018D5B9F4F0E94FC1EFE0180
:10508000ED5BFF4F8081813351F50E94DF1C8AEF79
:1050900092E00E94B91C81E060E00E94781E8EE0E0
:1050A00093E00E94B91CFE01E15BFF4F8FEF80830C
:1050B00005C0CE01815B9F4F0E94FC1EFE01E15B9B
:1050C000FF4F80818F3FA9F3FE01E15BFF4F2081FD
:1050D000CE018C5B9F4F622F0E94593558C0FE0154
:1050E000ED5BFF4F8081823331F4CE01865B9F4FB1
:1050F0000E94F5334CC0FE01ED5BFF4F808183338E
:1051000051F50E94DF1C8AE193E00E94B91C81E006
:1051100060E00E94781E8AE293E00E94B91CFE01C2
:10512000E05BFF4F8FEF808305C0CE01805B9F4F18
:105130000E94FC1EFE01E05BFF4F80818F3FA9F3C0
:10514000FE01E05BFF4F2081CE01855B9F4F622F08
:105150000E94C7361CC0FE01ED5BFF4F8081843387
:10516000B1F4FE01E65BFF4F4081FE01E75BFF4FBC
:105170005081FE01E55BFF4F708183E398E09E0163
:105180002C5B3F4F642F452F072F0E94E438FE0110
:10519000ED5BFF4F80818F3F09F46CCF60CB0E94A5
:1051A000DF1C109233088AE393E00E94B91C80E070
:1051B00090E0AAE7B4E48B879C87AD87BE876B85B8
:1051C0007C858D859E8520E030E04AE755E40E948D
:1051D0001F02DC01CB018F839887A987BA876F8173
:1051E000788589859A8520E030E040E85FE30E9479
:1051F000250488232CF481E090E09E838D833FC0BA
:105200006F81788589859A8520E03FEF4FE757E4E5
:105210000E94C50318164CF56B857C858D859E858F
:1052200020E030E040E251E40E941F02DC01CB01AB
:10523000BC01CD010E944900DC01CB019E838D831E
:105240000FC080E991E09C838B838B819C810197C7
:10525000F1F79C838B838D819E8101979E838D8343
:105260008D819E81009769F7FACA6F81788589855B
:105270009A850E944900DC01CB019E838D838D813C
:105280009E819A83898389819A810197F1F79A8314
:105290008983E5CADF93CF93CDB7DEB7A2970FB668
:1052A000F894DEBF0FBECDBF99A388A36AA31D8E5D
:1052B0008FEF8E8F1F8E8AA1813009F0A4C00E94CB
:1052C000DF1C83E092E00E94B91C81E060E00E9454
:1052D000781E1FC0CE014F960E94BA208F8D882362
:1052E000C1F08D8D282F30E088A199A1FC01E20F3B
:1052F000F31F8F8D80838D8D282F30E088A199A199
:10530000FC01E20FF31F80810E946C1D8D8D8F5F69
:105310008D8F8D8D8430F0F280E092E00E9492209B
:1053200080E090E0A6E9B3E4898F9A8FAB8FBC8FC1
:10533000698D7A8D8B8D9C8D20E030E04AE755E4B5
:105340000E941F02DC01CB018D8B9E8BAF8BB88F2F
:105350006D897E898F89988D20E030E040E85FE399
:105360000E94250488232CF481E090E09C8B8B8B99
:105370003FC06D897E898F89988D20E03FEF4FE790
:1053800057E40E94C50318164CF5698D7A8D8B8DF4
:105390009C8D20E030E040E251E40E941F02DC01DD
:1053A000CB01BC01CD010E944900DC01CB019C8BEB
:1053B0008B8B0FC080E991E09A8B898B89899A89C0
:1053C0000197F1F79A8B898B8B899C8901979C8B2C
:1053D0008B8B8B899C89009769F7B2C06D897E8918
:1053E0008F89988D0E944900DC01CB019C8B8B8BAF
:1053F0008B899C89988B8F878F8598890197F1F786
:10540000988B8F879DC08AA1823009F099C081E076
:1054100060E00E94781E1FC0CE014E960E94FC1EC6
:105420008E8D8F3FC1F08D8D282F30E088A199A1FE
:10543000FC01E20FF31F8E8D80838D8D282F30E0CD
:1054400088A199A1FC01E20FF31F80810E946C1DCD
:105450008D8D8F5F8D8F8D8D8430F0F280E090E0A8
:10546000A6E9B3E48B879C87AD87BE876B857C8577
:105470008D859E8520E030E04AE755E40E941F02BA
:10548000DC01CB018F839887A987BA876F817885E4
:1054900089859A8520E030E040E85FE30E9425049A
:1054A00088232CF481E090E09E838D833FC06F8140
:1054B000788589859A8520E03FEF4FE757E40E9481
:1054C000C50318164CF56B857C858D859E8520E07F
:1054D00030E040E251E40E941F02DC01CB01BC013C
:1054E000CD010E944900DC01CB019E838D830FC05A
:1054F00080E991E09C838B838B819C810197F1F7FC
:105500009C838B838D819E8101979E838D838D816A
:105510009E81009769F714C06F81788589859A8587
:105520000E944900DC01CB019E838D838D819E8189
:105530009A83898389819A810197F1F79A83898374
:105540000E94DF1CA2960FB6F894DEBF0FBECDBF3F
:10555000CF91DF910895DF93CF93CDB7DEB7A297B8
:105560000FB6F894DEBF0FBECDBF99A388A36AA380
:105570001D8E8FEF8E8F1F8E8AA1813009F098C00B
:105580000E94DF1C87E493E00E94B91C81E060E088
:105590000E94781E17C0CE014F960E94BA208F8DB0
:1055A000882381F08D8D282F30E088A199A1FC01FE
:1055B000E20FF31F8F8D80838AE20E946C1D8D8D18
:1055C0008F5F8D8F8D8D843030F380E090E0A8E484
:1055D000B2E4898F9A8FAB8FBC8F698D7A8D8B8D5A
:1055E0009C8D20E030E04AE755E40E941F02DC0178
:1055F000CB018D8B9E8BAF8BB88F6D897E898F8908
:10560000988D20E030E040E85FE30E942504882385
:105610002CF481E090E09C8B8B8B3FC06D897E8960
:105620008F89988D20E03FEF4FE757E40E94C50334
:1056300018164CF5698D7A8D8B8D9C8D20E030E0AD
:1056400040E251E40E941F02DC01CB01BC01CD010C
:105650000E944900DC01CB019C8B8B8B0FC080E941
:1056600091E09A8B898B89899A890197F1F79A8BB6
:10567000898B8B899C8901979C8B8B8B8B899C89CF
:10568000009769F7AAC06D897E898F89988D0E94DD
:105690004900DC01CB019C8B8B8B8B899C89988B7F
:1056A0008F878F8598890197F1F7988B8F8795C0A1
:1056B0008AA1823009F091C081E060E00E94781EEA
:1056C00017C0CE014E960E94FC1E8E8D8F3F81F03A
:1056D0008D8D282F30E088A199A1FC01E20FF31FE6
:1056E0008E8D80838AE20E946C1D8D8D8F5F8D8FE1
:1056F0008D8D843030F380E090E0A6E9B3E48B87B1
:105700009C87AD87BE876B857C858D859E8520E0D7
:1057100030E04AE755E40E941F02DC01CB018F8391
:105720009887A987BA876F81788589859A8520E0CF
:1057300030E040E85FE30E94250488232CF481E0F8
:1057400090E09E838D833FC06F81788589859A859F
:1057500020E03FEF4FE757E40E94C50318164CF5D1
:105760006B857C858D859E8520E030E040E251E4AC
:105770000E941F02DC01CB01BC01CD010E94490047
:10578000DC01CB019E838D830FC080E991E09C8377
:105790008B838B819C810197F1F79C838B838D8117
:1057A0009E8101979E838D838D819E81009769F7ED
:1057B00014C06F81788589859A850E944900DC0133
:1057C000CB019E838D838D819E819A83898389817C
:1057D0009A810197F1F79A838983A2960FB6F8947C
:1057E000DEBF0FBECDBFCF91DF910895DF93CF9382
:1057F000CDB7DEB7C354D0400FB6F894DEBF0FBEAE
:10580000CDBF9FAF8EAFFE01E05CFF4F7183608321
:10581000FE01EE5BFF4F518340831CAE1BAE1AAE00
:1058200019AE1DAE0E94DF1C80E092E00E94922023
:105830001BC08BAD855A8CAFCE01CD9660E04CADD0
:105840000E9401218BAD282F30E08EAD9FADFC0171
:10585000E20FF31F90818DAD981719F48AAD8F5F19
:105860008AAF8BAD8F5F8BAF8BAD843010F31BAEE7
:105870001EC08BAD815A8CAFCE01CD9660E04CAD91
:105880000E9401218BAD282F30E0FE01E05CFF4F2C
:1058900080819181FC01E20FF31F90818DAD9817FB
:1058A00019F489AD8F5F89AF8BAD8F5F8BAF8BADF7
:1058B0008430F8F289AD843009F089C08AAD843033
:1058C00009F085C00E94DF1C86E593E00E94B91CA8
:1058D00087E693E00E949220FE01EE5BFF4F01906D
:1058E000F081E02D81E0808380E090E0AAE7B4E4DD
:1058F0008DAB9EABAFABB8AF6DA97EA98FA998ADAC
:1059000020E030E04AE755E40E941F02DC01CB01B1
:1059100089AB9AABABABBCAB69A97AA98BA99CA9A3
:1059200020E030E040E85FE30E94250488232CF467
:1059300081E090E098AB8FA73FC069A97AA98BA9B5
:105940009CA920E03FEF4FE757E40E94C5031816DB
:105950004CF56DA97EA98FA998AD20E030E040E21A
:1059600051E40E941F02DC01CB01BC01CD010E9469
:105970004900DC01CB0198AB8FA70FC080E991E013
:105980009EA78DA78DA59EA50197F1F79EA78DA730
:105990008FA598A9019798AB8FA78FA598A9009775
:1059A00069F7C4C169A97AA98BA99CA90E94490079
:1059B000DC01CB0198AB8FA78FA598A99CA78BA7DB
:1059C0008BA59CA50197F1F79CA78BA7AFC189ADCB
:1059D000843009F088C08AAD843009F484C00E9404
:1059E000DF1C8AE793E00E94B91C8BE893E00E94D9
:1059F0009220FE01EE5BFF4F0190F081E02D1082BE
:105A000080E090E0A8E4B3E48FA398A7A9A7BAA781
:105A10006FA178A589A59AA520E030E04AE755E472
:105A20000E941F02DC01CB018BA39CA3ADA3BEA3EC
:105A30006BA17CA18DA19EA120E030E040E85FE356
:105A40000E94250488232CF481E090E09AA389A386
:105A50003FC06BA17CA18DA19EA120E03FEF4FE74D
:105A600057E40E94C50318164CF56FA178A589A5C7
:105A70009AA520E030E040E251E40E941F02DC01E0
:105A8000CB01BC01CD010E944900DC01CB019AA3EE
:105A900089A30FC080E991E098A38F8F8F8D98A183
:105AA0000197F1F798A38F8F89A19AA101979AA3E3
:105AB00089A389A19AA1009769F738C16BA17CA13C
:105AC0008DA19EA10E944900DC01CB019AA389A36C
:105AD00089A19AA19E8F8D8F8D8D9E8D0197F1F753
